:020000040800F2
:10000000A8070020A1010008F9280008F12800082D
:10001000F5280008A90900080D29000800000000C3
:10002000000000000000000000000000012900089E
:10003000690B000800000000FD28000805290008E1
:10004000BB010008BB010008BB010008BB010008A0
:10005000BB010008BB010008BB010008BB01000890
:100060006D0B0008750B00087D0B0008BB01000834
:10007000BB010008BB010008BB010008BB01000870
:10008000BB010008BB010008BB010008BB01000860
:10009000BB010008BB010008BB010008850B00087C
:1000A000BB010008BB010008BB010008BB01000840
:1000B000BB010008BB010008BB010008BB01000830
:1000C000BB010008BB010008BB010008BB01000820
:1000D000BB010008BB010008BB010008BB01000810
:1000E000BB010008BB010008BB01000800F002F8DA
:1000F00000F047F80AA090E8000C82448344AAF17B
:100100000107DA4501D100F03CF8AFF2090EBAE878
:100110000F0013F0010F18BFFB1A43F0010318473B
:10012000483E0000683E0000103A24BF78C878C1FD
:10013000FAD8520724BF30C830C144BF04680C60ED
:10014000704700000023002400250026103A28BF35
:1001500078C1FBD8520728BF30C148BF0B60704739
:10016000662903F09F86002070471FB500F04AFA09
:1001700004000020002103F053FDE0601FBD10B516
:1001800010BD00F03FFB1146FFF7EFFF02F0D6FB7A
:1001900000F05DFB03B4FFF7F2FF03BC00F0A0FB2F
:1001A0000948804709480047FEE7FEE7FEE7FEE70B
:1001B000FEE7FEE7FEE7FEE7FEE7FEE70448054947
:1001C000054A064B7047000009290008ED000008A9
:1001D000A8010020A8070020A8030020A8030020F1
:1001E0007047704770472DE9FF4F0C461E464FF091
:1001F000FF378BB0D2E90001DDF860800A908A46B3
:10020000C1F30A5505B93D46002108464FF00000EC
:10021000BAF1000F00F4400005DA00EB80004FF463
:10022000400101EA50004FEA9059B9F1010F00DD99
:10023000B9460A9850EA4A000ED044F61050A5F28A
:10024000FF3545432F14B8F1000F1ED07542291E0B
:100250001EDDC9F100021CE0B8F1010F4FF00000F3
:1002600001D0302103E0F24305E02154401CB042AC
:10027000FBDB30460022002121540B99C1F8088095
:10028000C1E900200FB0BDE8F08FBD1B6D1CDEE79B
:100290004A4600DA694206A800F03EFA06AB93E847
:1002A000070003AB83E8070050460A9903F0DBF828
:1002B0008DE80700A0F500501F3800900398002D2E
:1002C0000ADD42F21F014A460844002303A90390B5
:1002D000684603F045FB09E0A0F500504A461F3888
:1002E000002303A90390684603F04FFB8DE8070045
:1002F0000004000C03D04FF0FF30410800E010462E
:10030000B8F1000F03D00022009215461EE0751EC2
:1003100005D400F07BF9303262556D1EF9D5B34635
:100320000122084302D000227F1C04E020783028FC
:1003300001D100227F1E002A099784D01DE0112DD3
:1003400007DA00F063F9303262556D1C50EA0102A1
:10035000F5D1084302D00098C8B10EE00021681E14
:1003600005E0235C625C63542254401E491C8142B8
:10037000F7DBAB46A81B401E0990002004F80B00D9
:100380000B98099AC0F80880C0E9002B7AE711267B
:100390004FF0000857E72DE9F04F88460446D21D7C
:1003A00022F0070191B0D1E90001CDE90A0103F083
:1003B00023FC02460B98C00F01D02D2007E02068D7
:1003C000810701D52B2002E0202101EAC000032A89
:1003D000099001D0072A05DB03464146204600F07C
:1003E0005BF90BE12078800601D5E06900E006208A
:1003F000B8F1650F814606D0B8F1660F18D0B8F194
:10040000670F70D131E00020B9F1110F009001DBCE
:10041000112301E009F101030AAA01A90CA8FFF7C1
:10042000E2FEDDE90C70002609F10105834647E094
:1004300001204B4600904FF000470AAA01A90CA8E2
:10044000FFF7D1FEDDE90DB00C995D46002610B92D
:1004500009F101000D18B9EB050003D4C0F1FF3616
:1004600009F10105A5EB09002BE0B9F1010F01DA53
:100470004FF001090020B9F1110F0090484601DD4D
:10048000112300E003460AAA01A90CA8FFF7ABFE5E
:10049000DDE90C704D4600268346207800070AD41B
:1004A000AB4500DA5D4601A8012D04DD411911F8C4
:1004B000011C302907D04F4502DA17F1040F04DA86
:1004C000012082460FE06D1EEEE7002F02DCED1BDF
:1004D0003E4403E0781CA84200DD7D1CB81B00F1FF
:1004E000010A4FF000472078000703D4AA4501DB3A
:1004F0004FF0FF3A0021B7F1004F0DF143088DF89E
:10050000431024D002202B23002F01DA7F422D2319
:100510000A21021EA0F1010000DC5FB197FBF1FC93
:1005200097FBF1F201FB1C7C17460CF1300C08F82C
:1005300001CDEEE7A8F1010003702188090501D57E
:10054000452100E06521A0F1010800F8011C09988F
:100550000FA9A1EB0807FF1D00B10120411901EB14
:10056000EA70A1693844081A401EA0612078C006CC
:1005700002D42046AFF30080099828B1D4E90121C4
:100580009047206A401C20622078C00622D5204671
:10059000AFF300801EE0002E04DBB34502DD01A8AE
:1005A000805D00E03020D4E901219047206A401CA2
:1005B0002062761CAAF101005FEA000A0AD100F06D
:1005C00021F8C0680168405CD4E901219047206AA5
:1005D000401C2062281EA5F10105DCDC07E0D4E9FF
:1005E000012118F8010B9047206A401C2062381E38
:1005F000A7F10107F3DC2046AFF30080032011B020
:1006000041E60000004870473000002030B5B0F1EE
:100610000A0271F100034FEA900E4EEA817EB0EBC0
:100620000E0061EB91014FEA101E4EEA017E10EBC5
:100630000E0041EB11114FEA102E4EEA016E10EB45
:100640000E0041EB11214FEA104E4EEA014E10EB25
:100650000E0041EB1141401841F100014FEAD0007A
:1006600040EA41704FEAD1014FEA810444EA9074B4
:1006700010EB800544EB01046D1944EB0404521B9C
:10068000A3414FF0000348BF0A3200D530BD401CE3
:1006900041F1000130BD00002DE9F0411F46044644
:1006A00003260168072A01F4006004DB08B116A5DF
:1006B00005E016A503E008B115A500E015A521F099
:1006C00010002060A069C01EA0610FB1401EA06193
:1006D0002046AFF300804FB1D4E90121384690475E
:1006E000206A401C2062C01C206206E0206AFAE7F3
:1006F000D4E9012115F8010B9047761EF8D2204667
:10070000AFF30080BDE8F0814E414E006E616E0097
:10071000494E4600696E66002DE9F047814616464F
:100720008AB0354878440DC88DE80D0032487844C9
:10073000801C03AC0DC884E80D0041F69B300844D2
:10074000372190FBF1F290FBF1F5A5F1800501FB5B
:1007500012041B3C02D56442012000E00020DFF8B7
:1007600098A080460027FA44AAF1BE0A0EE0E007EE
:100770000AD03246684607EB470101230AEB8101A4
:1007800003F003F98DE8070064107F1C002CEED104
:10079000194F7F44AE3F19E0E80715D007EB04106E
:1007A0000DF1180A90E80E008AE80E00C068F042C9
:1007B00001D1981908903246012306A903A803F035
:1007C000E4F803AB83E807006D10641C002DE3D14F
:1007D0004FF0010332466946B8F1000F03A802D07A
:1007E00003F0BEF801E003F0D0F8C9E90001C9F850
:1007F00008200AB0BDE8F087FC37000000487047C9
:10080000100000207546FFF7F9FFAE460500694667
:10081000534620F00700854618B020B5FFF7CEFC00
:10082000BDE820404FF000064FF000074FF00008F1
:100830004FF0000BAC46ACE8C009ACE8C009ACE82E
:10084000C009ACE8C00921F007018D46704710B51A
:100850000446AFF300802046BDE81040FFF79ABC85
:100860004FF0013C50F8042B51F8043B9A4221D13F
:10087000A2EB0C03934313EACC1317D150F8042BCB
:1008800051F8043B9A4215D1A2EB0C03934313EAAF
:10089000CC130BD150F8042B51F8043B9A4209D1E8
:1008A000A2EB0C03934313EACC13DBD04FF0000010
:1008B000704700BFD01A01BAB1FA81F101F01801F6
:1008C00022FA01F0CB40DBB2C0B2C01AC1F1200164
:1008D0002CFA01F3D11A914311EAC311E6D1704702
:1008E00001491820ABBEFEE7260002007047000059
:1008F000B0B582B004460020019021688A68D20712
:100900004FD1886840F00100886040F20800C2F2D0
:10091000000000684DF68361C4F21B31A0FB0101A9
:10092000880C01900198A0B10198013801900198BC
:1009300078B1019801380190019850B101980138BF
:100940000190019828B10198013801900198002880
:10095000EAD100F031FE21688968C9071CD105463B
:1009600003E000BF8068C0071AD100F025FE411BDC
:1009700020680329F6D38168C907F3D1A06A40F043
:100980001000A062E06A40F00100E062002084F8FC
:100990002400012002B0B0BD002002B0B0BD00BFF5
:1009A000002002B0B0BD0000FEE700002DE9F04FCE
:1009B00081B040F60004C4F2010400BF20460221C9
:1009C00000F0E6FD0028F9D0282001F0A1FF204624
:1009D000022100F0DDFD81462046022100F0D8FD15
:1009E0000028F9D12046022100F0D2FD0028F9D0DC
:1009F000282001F08DFF2046022100F0C9FD009063
:100A00002046022100F0C4FD0028F9D12046022131
:100A100000F0BEFD0028F9D0282001F079FF204623
:100A2000022100F0B5FD82462046022100F0B0FD13
:100A30000028F9D12046022100F0AAFD0028F9D0B3
:100A4000282001F065FF2046022100F0A1FD834629
:100A50002046022100F09CFD0028F9D12046022109
:100A600000F096FD0028F9D0282001F051FF204623
:100A7000022100F08DFD05462046022100F088FD90
:100A80000028F9D12046022100F082FD0028F9D08B
:100A9000282001F03DFF2046022100F079FD0746A5
:100AA0002046022100F074FD0028F9D120460221E1
:100AB00000F06EFD0028F9D0282001F029FF204623
:100AC000022100F065FD06462046022100F060FD8F
:100AD0000028F9D12046022100F05AFD0028F9D063
:100AE000282001F015FF2046022100F051FD80462C
:100AF0002046022100F04CFD0028F9D1B8F1000F8A
:100B000018BF4FF00108002E18BF0126002F6FF00C
:100B10003F0018BF0127B9F1000F18BF4FF00109BE
:100B200008BF40200099002908BF4FEAC910BAF158
:100B3000000F18BF4FF0010A40EA4A10BBF1000F46
:100B400018BF4FF0010B40EA0B10002D18BF012514
:100B500040EAC50040EA870040EA460040EA080053
:100B6000C0B201B0BDE8F08F70470000042000F073
:100B7000F5BB0000082000F0F1BB0000102000F0E1
:100B8000EDBB0000202000F0E9BB000010B581B0F3
:100B90000022009290F82420012A03D10221084665
:100BA00001B010BD4B680122062B80F8242017D815
:100BB000D0F800C003EB83035A1F1F23DCF834E096
:100BC00003FA02F40B682EEA040403FA02F2224349
:100BD000CCF83420092B03EB430219D936E000BFCF
:100BE000D0F800C00C2B03EB83021DD8233A1F233F
:100BF000DCF830E003FA02F40B682EEA040403FA8E
:100C000002F22243CCF83020092B03EB43021DD81B
:100C1000DCF81030072489689440A34391401943BD
:100C2000CCF81010002130E0413A1F23DCF82CE012
:100C300003FA02F40B682EEA040403FA02F22243D8
:100C4000CCF82C20092B03EB4302E1D9DCF80CE0B3
:100C50001E3A0724896894402EEA0404914023F048
:100C600001022143102ACCF80C100DD142F20841A8
:100C7000C4F20101A1F1080294450DD0816A41F04E
:100C800020018162012100E00021002280F824205F
:100C9000084601B010BD00BF0A68120230D40A68CD
:100CA000102B42F400020A602CD140F20801C2F27B
:100CB000000109684DF68362C4F21B32A1FB0212E7
:100CC000910C01EB8101490000910099E1B100997B
:100CD000013900910099C9B1009901390091009939
:100CE000B1B1009901390091009999B10099013988
:100CF0000091009900294FF00001E8D1C5E700BF3D
:100D00000021C2E70021C0E70021BEE70021BCE7C7
:100D10000021BAE70021B8E70068C06C7047000006
:100D2000B0B5002800F0A8800446806A20B1216890
:100D30008868C0070BD114E00020E06284F824002A
:100D4000204600F09BF821688868C00709D08868B1
:100D500020F00100886000F02FFC21688A68D2072B
:100D600026D1A06AC0063AD4A06A41F2021290438A
:100D70000230A062E069D4E9013240EA030C531E5C
:100D8000B3FA83F35D091346B2F5807F18BF2B02D7
:100D9000207D257B01284CEA450030D135B3A56A7A
:100DA00045F02005A562E56A45F00105E56226E00B
:100DB000054602E08868C007D3D000F0FDFB401B69
:100DC00021680328F6D38868C007F3D0A06A40F0F2
:100DD0001000A062E06A40F00100E062A06AA06A30
:100DE00040F01000A0620120B0BD00BFD4F818C0D0
:100DF0004EF60005CFF6FF7505EB4C352B434D68DD
:100E0000B2F5807F25F4694543EA05034B608B68A2
:100E10004FF2FD75CFF6E17503EA050343EA0003DF
:100E20008B6001D0012A07D122690023CFF6F0732D
:100E300003EB025201E000BF0022CB6A23F47003EF
:100E40001A43CA62896840F6FE62CFF61F721140EB
:100E5000814207D10020E062A16A012262F3010110
:100E6000A162B0BDA06A40F0100020F00200A062B4
:100E7000E06A40F00100E0620120B0BD80B586B0BC
:100E8000014640F60040C4F20100096800F5C05276
:100E900091424FF00001CDE9041101D006B080BDB0
:100EA00041F21801C4F202010A6842F400720A60B9
:100EB0000A6802F400720192019A0A6842F008027C
:100EC0000A60096801F0080101910199022102916B
:100ED0000321039102A900F04DFA06B080BD000085
:100EE000F0B581B000270D460446009700F064FB82
:100EF00021688A68D20543D406464868C00503D4F1
:100F0000C86A10F4700F45D040F20800C2F2000029
:100F10000768022000F0FCFC216844F624130A69EB
:100F2000B7FBF0F0C2F292431A4206D1CA6844F607
:100F30002413C0F292031A425ED00A6942F292432D
:100F4000C1F249231A4207D1CA6842F29243C0F261
:100F500049031A4200F0C0800A6949F24923C0F2ED
:100F600024031A424FF0FC0257D1CF681F4208BF3A
:100F70005422009B02FB00F7BB4253D3C3E000BFE7
:100F8000A06A40F02000A06284F82470012001B023
:100F9000F0BD00BF0868800700F1B580681C00F054
:100FA000A880FDB90868800772D50868800700F13D
:100FB000AA80086880076BD50868800700F1A380C5
:100FC0000868800764D50868800700F19C8008687D
:100FD00080075DD508688007E4D594E0086880073D
:100FE00000F1918000F0E8FA801B2168A842F5D951
:100FF00008688007F2D44BE00A6942F29243C1F2DA
:1010000049231A424FF0290207D1CB6842F2924796
:10101000C0F249073B4208BF1422009B02FB00F7C5
:10102000BB4270D2681C4FD055BB0098B8422FD33A
:101030000098013000900098B84264D20098B842FD
:1010400026D30098013000900098B8425BD20098F7
:10105000B8421DD30098013000900098B84252D297
:101060000098B84214D30098013000900098B8421C
:10107000DBD348E00098013000900098B84233D2AA
:1010800000F09AFA801BA842F4D90098B842F1D235
:10109000A06A40F00400A062002084F8240003202D
:1010A00001B0F0BD0098013000900098B8422AD2FB
:1010B0000098013000900098B84224D20098013086
:1010C00000900098B8421ED200980130009000981D
:1010D000B842E7D317E000BF5422009B02FB00F7A1
:1010E000BB429FD30FE000BF21680CE00868800777
:1010F00009D40868800706D4086880075CBF0868C0
:101100005FEA8070F2D56FF012000860A06A40F4C8
:101110000070A062886800F46020B0F5602F01D1F3
:10112000207B18B1002001B0F0BD00BFA06A20F400
:101130008070A062A06AC004F4D4A06A40F00100EC
:10114000A062002001B0F0BD10B5044690F8240064
:10115000012804BF022010BD012084F8240020468D
:10116000FFF7C6FB20B1002184F8241010BD00BF9A
:1011700042F2044C2068A16AC4F2010C40F2013230
:1011800091430CF57F7201F580719042A16233D0DA
:10119000A16A21F48011A1624168490504D5A16AC0
:1011A000012363F30D31A162A16A0023C9044FF04A
:1011B000000144BFE16A21F00601E1626FF0020123
:1011C00084F824300160816801F46021B1F5602F5A
:1011D00006D190420AD1DCF8001011F4702F05D02E
:1011E000816841F480118160002010BD816841F464
:1011F000A0018160002010BDDCF8001011F4702FF8
:10120000C6D0A16A41F48011A162DCF80010490542
:10121000C5D4C9E7B0B5044600F0CEF9054640F2A2
:101220000000C2F200000078611C18BF044400BF37
:1012300000F0C2F9401BA042FAD3B0BDB0B50446DD
:10124000043881B2800340EA910080B2072825D893
:10125000DFE800F0634C24042424242640F6000038
:10126000C4F2010000F500604FF4804100F096F9EF
:1012700040F27000C2F20000C17840F63402B1FAC8
:1012800081F14909C170818940F63C73914288BF60
:101290000023042C838140D0082C27D0B0BD00BF90
:1012A00040F27005C2F20005A87828B10020042C95
:1012B000A87016D131E000BF68690021C4F2D811CE
:1012C00002F0D2FC002840F21010C2F200000068C8
:1012D0004FF4967118BF002141630120042CA870BF
:1012E0001BD0082C02D0102CD8D1B7E740F27005E3
:1012F000C2F20005287928B14FF480604FF47A716A
:1013000001F052FF687928B14FF480604FF47A7190
:1013100001F0EAFD042C18BFB0BD40F27005C2F226
:101320000005687810B100206870B0BD40F6000478
:10133000C4F201040120687004F500604FF400411C
:1013400000F026F90028A87120464FF4004114BF90
:1013500001220022BDE8B04000F028B940F214415B
:10136000C4F201010A68024214BF08607047FFF727
:1013700065BF00002DE9F04F82B00E68002E00F02E
:10138000038141F20042C4F20102042340F2004E04
:10139000904208BF03234FF6FF7CC4F2010E009376
:1013A00000240123C1F2100C4FF0000A4FF0000995
:1013B00049E000BF012704F00C030F229A402BEAFA
:1013C000020207FA03F34FEA9A051A4346F825206A
:1013D000D1F804B040F20C455FEACB22DEF80820D9
:1013E00054BF22EA080242EA0802C4F20105CEF81C
:1013F00008202A685FEA8B2354BF22EA080242EAE7
:1014000008022A605FEA8B33DEF8042054BF22EA28
:10141000080242EA08025FEACB33CEF80420DEF885
:1014200000204FF0010354BF22EA080242EA0802FA
:10143000CEF800200E680AF1010A36FA0AF204F129
:10144000040400F0A18003FA0AF816EA080FF1D0AC
:101450004E68664512DC122E56D8DFE806F0350BD2
:101460004549555555555555555555555555554D50
:10147000510000BFD1F80C9046E000BF4FF6FF725C
:10148000C1F2210296420FDC0022C1F21102964203
:101490001AD00022C1F21202964215D00022C1F2E7
:1014A0002102964210D02FE00022C1F22202964281
:1014B0000AD00022C1F23102964205D00022C1F2C8
:1014C0003202964220D100BF8A684AB1012A14BF75
:1014D000C0F81480C0F810804FF0080914E000BF75
:1014E0004FF0040910E000BFCA6802F108090BE0E0
:1014F0004FF0000908E000BFCA6802F1040903E0E8
:10150000CA6802F10C0900BF22460646BAF1080F6C
:1015100024BF203A043637680F25954027EA050591
:1015200009FA02F22A433260CA79D2067FF582AF05
:1015300041F21803C4F202031A68AEF57E7642F057
:1015400001021A601A6802F001020192019A2AF05F
:10155000030256F802B040F60002C4F201029042C3
:1015600010D040F60042C4F2010290423FF422AF94
:1015700041F20002C4F20102009F904208BF02271C
:1015800019E700BF002716E702B0BDE8F08F0000A2
:101590008068084018BF012070470000C26802EA56
:1015A0000103914341EA034101617047002A08BFEA
:1015B000090401617047000040F2A010C2F200006F
:1015C0000068704770B5B8B3044690F83D0028B97C
:1015D000002084F83C00204600F0B0F8242084F875
:1015E0003D002068016821F001010160016841F4BB
:1015F00000410160016821F40041016000F066FBD8
:1016000048F28041C0F21E0140F60013D4F804E015
:1016100088424FF00001C0F23D0348F2A16C4FF048
:10162000000238BF01219842C0F2010C38BF0122EC
:10163000E64538BF0A460AB1012070BD4DF6836108
:10164000C4F21B31A0FB01122168950C4B684FF4CA
:10165000967623F03F0343EA9243754344F6D3560C
:101660004B60C1F262060B6AA5FB0656B50923F072
:101670003F03E64538BF950C6A1C1A430A62CA69E3
:1016800048F2A0664CF6FF73C0F20106B64522EAA6
:1016900003020BD801384FEA4E03B0FBF3F00130E0
:1016A0006FF31F30042898BF04201EE0A3680138A0
:1016B00063B119230EFB03F3B0FBF3F001306FF3BA
:1016C0001F3078B100F5804008E000BF0EEB4E03FC
:1016D000B0FBF3F001306FF31F3028B100F500408C
:1016E00003E000BF012000E001201043C86108684A
:1016F000D4E9072320F0C00010431843086088682D
:1017000048F2FF3204F10C0690434CCE18431043CC
:10171000A5698860C86820F0FF0030432843C8608E
:10172000086840F00100086000202021206484F84F
:101730003D10206384F83E0070BD000010B586B0F7
:1017400045F200410068C4F2000100228842049280
:1017500002D006B010BD00BF41F21804C4F202046A
:10176000206840F008002060206800F00800019028
:101770000198C0200290122003900320059001F5EB
:10178000384002A9FFF7F6FD606840F40010606081
:10179000606800F400100190019806B010BD0000D0
:1017A00040F2000040F2A011C2F20000C2F20001BB
:1017B00000780A68104408607047000080B542F263
:1017C0000000C4F20200016841F010010160032032
:1017D00000F08EF80F2000F005F800F027F8002048
:1017E00080BD000070B540F20006C2F2000640F273
:1017F00008013278C2F200014FF47A730968B3FB32
:10180000F2F20446B1FBF2F1084600F061FC0F2C45
:101810004FF0010508D838B94FF0FF3021460022BB
:10182000002500F039F87460284670BD82B041F29E
:101830001800C4F202000168022241F001010160B7
:10184000016801F0010101910199416841F0805165
:101850004160406800F08050009000980420C4F27D
:101860000100016862F31A61016002B07047000074
:10187000002848BF7047C1B200F01F00012202FAE1
:1018800000F04EF20012CEF2000242EAD10121F045
:10189000030108607047000010B54EF60C5CCEF2F4
:1018A000000CDCF80030C3F3022E8EF00704042C89
:1018B00028BF0424BEF103034FF0FF3E0EFA04F4E8
:1018C00038BF0023A14399400EFA03F39A43114312
:1018D00000F00F0200F160430901043A03F564438C
:1018E0006244002848BF02F10C03197010BD0000CB
:1018F0004EF60C51CEF200010A684FF6FF031A4073
:1019000060F30A2242F0806040F0FD70086070478A
:1019100080B5012818D0022836D0102832D141F2E3
:101920000401C4F202010A6851F8040CC00129D56F
:10193000C2F383402DA3185CD2033DD440F60012BD
:10194000C0F23D02504343E041F20400C4F2020001
:10195000C16940F202320A40B2F5817F04BF4FF400
:10196000004080BD01F44071B1F5407F1CD0B1F55D
:10197000007F07D1006A49F64041800701EAE07024
:1019800080BD00BF002080BD00F0B4F941F2040129
:10199000C4F2020109680222C1F3813102EB410164
:1019A000B0FBF1F080BD00BF50F8040C4FF22441B1
:1019B000800301EAE07080BD0A6810A3C2F34042D0
:1019C0009A5C41F20023C0F27A03B3FBF2F2504377
:1019D0000968490248BF80BD4AF6AB214000CAF6FB
:1019E000AA21A0FB0101480880BD00BF0203040535
:1019F000060708090A0B0C0D0E0F1010010200005B
:101A00002DE9F04182B00446007841F21C06C0077F
:101A1000C4F202064AD0306810F0805808D130680D
:101A200040F080503060306800F0805001900198A4
:101A300047F20007C4F200073868C00512D43868BE
:101A400040F480703860FFF7B7FD05463868C00580
:101A500008D4FFF7B1FD401B6428F7D9032002B07A
:101A6000BDE8F081706810F4407012D0616801F434
:101A7000407188420DD0706840F24042C4F2422268
:101A8000012320F4407113600023C00713607160CC
:101A90002AD17068616820F440700843B8F1000FE3
:101AA000706003D1306820F080503060206881077A
:101AB00007D556F8181CA26821F44041114346F896
:101AC000181CC00604D4002002B0BDE8F08100BF9D
:101AD00056F8180CE16820F48000084346F8180C0A
:101AE000002002B0BDE8F081FFF766FD054641F237
:101AF000883700BF70688007CBD4FFF75DFD401BBF
:101B0000B8424FF00300F5D9EBE700002DE9F043B0
:101B100081B0002800F0858042F20008C4F202087B
:101B20000446D8F800000D4600F0070088420CD2A9
:101B3000D8F8000020F007002843C8F80000D8F8C3
:101B4000000000F00700A8426BD1206841F20409B0
:101B50008107C4F2020917D5410705D5D9F800104D
:101B600041F4E061C9F80010010705D5D9F800106B
:101B700041F46051C9F80010D9F80010A26821F0B2
:101B8000F0011143C9F80010C00741D1D8F8000096
:101B900000F00700A8420CD9D8F8000020F0070098
:101BA0002843C8F80000D8F8000000F00700A84259
:101BB00037D12068410707D5D9F80010E26821F431
:101BC000E0611143C9F80010000708D5D9F80000FA
:101BD000216920F4605040EAC100C9F80000D9F83A
:101BE000002002F00C00082841F20020C0F27A0028
:101BF00050D143F65673C2F38341C0F60003595CDB
:101C0000D2033BD440F60010C0F23D00484341E00F
:101C1000606802280AD001282AD159F8041C8903D7
:101C200008D4012001B0BDE8F08300BF59F8041CBE
:101C30008901F6D5D9F8001021F003010843C9F84D
:101C40000000FFF7B9FC064641F28837D9F80000DA
:101C5000616800F00C00B0EB810F97D0FFF7ACFC8F
:101C6000801BB842F2D9032001B0BDE8F08300BF69
:101C700059F8041C8907D4D5DCE700BFD9F8002047
:101C800043F65473C2F34042C0F600039A5C4843E3
:101C9000B0FBF2F0D9F8001043F63C72C1F3031127
:101CA000C0F60002515C40F2080220FA01F140F255
:101CB0000400C2F200000068C2F200021160FFF7E7
:101CC00091FD002001B0BDE8F083000040F2080063
:101CD00041F20401C2F20000C4F202010068096886
:101CE00043F64C72C1F30221C0F60002515CC840B9
:101CF0007047000040F2080041F20401C2F2000007
:101D0000C4F202010068096843F64C72C1F3C221B3
:101D1000C0F60002515CC840704700002DE9F04158
:101D200082B0002868D00446007841F20006C0075F
:101D3000C4F2020625D0706800F00C0004281BD005
:101D4000706800F00C00082802D17068C00313D43A
:101D50006068002800F06881B0F5A02F00F07C8159
:101D6000B0F5803F00F07C81306820F48030306036
:101D7000306820F4802076E13068800301D5606807
:101D8000D0B32078800718D5706810F00C0F07D0FA
:101D9000706800F00C0008286ED17068C0036BD426
:101DA0003068800702D52069012825D13068616933
:101DB00020F0F80040EAC1003060207800071FD40E
:101DC0002078400732D4E56995B1706800F00C00C6
:101DD000082840F08F80012D0ED07068216A00F431
:101DE00080328A4208D1616A00F47010884203D1BF
:101DF000002002B0BDE8F081012002B0BDE8F08112
:101E0000A069002862D00020C4F242200121C0F85D
:101E10008014FFF7D1FB0546706A800700F18C80C3
:101E2000FFF7CAFB401B0228F6D92AE1F06910F03F
:101E3000805808D1F06940F08050F061F06900F0FE
:101E400080500090009847F20007C4F200073868FD
:101E5000C00529D4386840F480703860FFF7ACFBC7
:101E6000054600BF3868C0051ED4FFF7A5FB401B20
:101E70006428F7D905E100BF2069002840F200007E
:101E8000C4F2422000F0828001210160FFF794FB40
:101E9000054600BF306880073FF588AFFFF78CFB31
:101EA000401B0228F6D9ECE0E068002800F08080B2
:101EB000052800F09780012800F09880306A20F013
:101EC00001003062306A20F0040092E00020C4F289
:101ED00042200021C0F88014FFF76EFB054600BFCA
:101EE000706A80077FF56CAFFFF766FB401B022826
:101EF000F6D9C6E00027C4F2422700203866FFF773
:101F00005BFB022D05460BD13068800140F1BE809D
:101F1000FFF752FB401B02284FF00300F4D968E79B
:101F2000306880017FF564AFFFF746FB401B022855
:101F30004FF00300F4D95CE740F20800C2F2000061
:101F4000006844F6D351C1F26201A0FB0101480AC6
:101F5000019000BF00BF0198411E002801913FF48D
:101F60002FAF00BF0198411E002801913FF428AF18
:101F700000BF0198411E002801913FF421AF00BF2E
:101F80000198411E00280191E4D119E70021016068
:101F9000FFF712FB054600BF306880077FF50DAFE5
:101FA000FFF70AFB401B02284FF00300F4D920E79B
:101FB000306A20F001003062306A20F004003062A4
:101FC000FFF7FAFA054641F2883700BF306A80070A
:101FD00020D5FFF7F1FA401BB8424FF00300F5D9C6
:101FE00007E700BF306A40F004003062306A40F01A
:101FF00001003062FFF7E0FA054641F2883700BF82
:10200000306A800706D4FFF7D7FA401BB842F7D9E9
:1020100037E000BFB8F1000F7FF4D5AEF06920F0D3
:102020008050F061CFE600BF306820F4803030602F
:10203000306820F480203060FFF7BEFA054600BF0C
:10204000306880037FF59DAEFFF7B6FA401B642829
:102050004FF00300F4D9CCE6306840F480203060C3
:10206000306840F480303060FFF7A6FA054600BFC4
:10207000306880033FF585AEFFF79EFA401B642869
:10208000F6D9032002B0BDE8F08100BF206AB0F5A8
:10209000803F05D17168A26821F40031114371605D
:1020A0007168626A21F47411114308437060012061
:1020B0003866FFF781FA0446306880013FF598AE34
:1020C000FFF77AFA001B02284FF00300F4D990E6DC
:1020D000411E0020B0EB116F1CBF012070474EF273
:1020E0001002CEF2000251604EF62351CEF20001F2
:1020F000F0230B70072190601160704710B590F8C5
:102100003C20012A4FF0020233D080F83D200268C3
:10211000D2F804E0D2F808C00C682EF07003234314
:1021200040F2FF74C4F20004A24253600ADCB2F130
:10213000804F13D040F20043C4F200039A420DD006
:1021400011E000BF42F60043C4F201039A4205D0F9
:1021500040F60003C4F200039A4204D149682CF00F
:102160008003194391600121002280F83D1080F81E
:102170003C20104610BD0000002804BF012070471D
:1021800010B5044690F83D0028B9002084F83C00C2
:10219000204600F067F8022084F83D00206840F2F5
:1021A000FF730268C4F2000342F6004C9842C4F286
:1021B000010C15DCB0F1804F1AD040F20041C4F29E
:1021C0000001884214D0984218DCB0F1804F1DD035
:1021D00040F20041C4F20001884217D01AE000BF6B
:1021E000604505D040F60001C4F200018842EAD102
:1021F000A16822F070020A439842E6DD604505D0EE
:1022000040F60001C4F20001884203D1216922F4A2
:1022100040720A43A36922F08001D4F804E0E26826
:10222000194360450160C262C0F828E002D16169CB
:10223000CCF8301001214161002084F8461084F868
:102240003E1084F83F1084F8401084F8411084F860
:10225000421084F8431084F8441084F8451084F840
:102260003D1010BD82B0006840F60001C4F20001CC
:10227000884215D040F20041C4F2000188421CD1CE
:1022800041F21C00C4F20200016841F00201016049
:10229000006800F002000190019802B0704700BF92
:1022A00041F21C00C4F20200016841F00401016027
:1022B000006800F004000090009802B07047000031
:1022C00090F83D1001291CBF01207047022180F8C1
:1022D0003D10006840F2FF71C4F20001884209DC41
:1022E000B0F1804F12D040F20041C4F200018842A8
:1022F0000CD012E042F60041C4F20101884205D040
:1023000040F60001C4F20001884206D1816801F064
:102310000701062904BF00207047016841F0010150
:10232000016000207047000080B590F83C20012A31
:102330004FF0020200F0C28080F83D20D0F800C0CB
:102340004FF67772DCF8083023EA0202CCF8082056
:102350000B684F2B28DC1F2B44DD202B45D0302B66
:1023600043D0402B40F0AC80D1F804E0C968DCF8E1
:102370002030DCF8202022F00102CCF82020DCF80C
:10238000182022F0F00242EA011123F00A0242EA88
:102390000E02CCF81810CCF82020DCF8081041F020
:1023A000470121F0300180E06F2B27DDB3F5005F9E
:1023B00048D0B3F5805F7AD0702B40F08180D1E9AE
:1023C00001E3C968DCF8082043EA0E0322F47F42E7
:1023D00043EA01211143CCF80810DCF8081041F061
:1023E000770162E00BB1102B6AD1DCF8081021F004
:1023F0007001194341F0070157E000BF502B35D061
:10240000602B5DD1D1F804E0C968DCF82030DCF83D
:10241000202022F01002CCF82020DCF8182022F432
:10242000704242EA013123F0A00242EA0E12CCF8D7
:102430001810CCF82020DCF8081041F0670121F0DA
:10244000100132E0D1E901E3C968DCF8082043EA71
:102450000E0322F47F4243EA01211143CCF8081015
:10246000DCF8081041F480411FE000BFD1F804E01F
:10247000C968DCF82030DCF8202022F00102CCF81A
:102480002020DCF8182022F0F00242EA011123F0AB
:102490000A0242EA0E02CCF81810CCF82020DCF830
:1024A000081041F0570121F02001CCF8081000225B
:1024B000012180F83D10002180F83C10104680BDBD
:1024C0000122F5E780B586B040F200410068C4F211
:1024D000000100228842049202D006B080BD00BFF5
:1024E00041F21800C4F20200026842F004020260E5
:1024F000006800F004000190019840200290022042
:102500000390059001F5823002A9FEF733FF06B073
:1025100080BD00002DE9F04390F83C30012B04BF52
:102520000220BDE8F0834FEAB202032A3CD8DFE87C
:1025300002F0034381BD00BF036842F600461D6AF6
:102540001A6AC4F2010622F001021A621A465C6895
:1025500052F818CFB3428E68D1F800E025F002059A
:1025600045EA06050CD1CE68D1E9057824F440741B
:1025700025F00C0526F004063C43354344EA0804E4
:102580002CF0730747EA0E075C609F614F6809698A
:102590005F631D629F6947F008079F619F6927F08D
:1025A00004079F61B2E000BF0121002280F83C20B7
:1025B0000846BDE8F08300BF036842F600461D6A86
:1025C0001A6AC4F2010622F010021A621A46D3F8FF
:1025D00004C052F8184FB3428E68D1F800E025F0DD
:1025E000200545EA061510D1CE68D1E9058725F00A
:1025F000C0096FF0400505EA06152CF4406647EA6D
:10260000080745EA090546EA870C24F4E64444EA4B
:102610000E27C3F804C09F614F6809699F631D625C
:102620009F6947F400679F619F6927F480679F61F6
:102630006BE000BF036842F600461D6A1A6AC4F2E6
:10264000010622F480721A621A46D3F804C052F8C6
:102650001CEFB3428E680C6825F4007545EA062528
:1026600011D1CE68D1E9058725F44069360240F2E0
:10267000FF4526EA05052CF4405647EA080745EAD7
:10268000090546EA071C2EF073072743C3F804C068
:10269000DF614F680969DF631D62DF6947F0080782
:1026A000DF61DF6927F00407DF612FE0036842F68E
:1026B0000047D3F820C01A6AC4F2010722F48052FE
:1026C0001A621A465C6852F81C5FD1F800E08E6806
:1026D000BB4204D14F6924F4804444EA87142CF4AB
:1026E000005747EA063725F4E64646EA0E265C60C0
:1026F000DE614E6809691E641F62DF6947F4006786
:10270000DF61DF6927F48067DF610902136819431D
:1027100011600021002280F83C200846BDE8F083CB
:10272000002804BF0120704710B5044690F83D0012
:1027300028B9002084F83C00204600F067F8022009
:1027400084F83D00206840F2FF730268C4F2000381
:1027500042F6004C9842C4F2010C15DCB0F1804FF7
:102760001AD040F20041C4F20001884214D09842CD
:1027700018DCB0F1804F1DD040F20041C4F20001DE
:10278000884217D01AE000BF604505D040F600012E
:10279000C4F200018842EAD1A16822F070020A4323
:1027A0009842E6DD604505D040F60001C4F2000124
:1027B000884203D1216922F440720A43A36922F0BE
:1027C0008001D4F804E0E268194360450160C26208
:1027D000C0F828E002D16169CCF8301001214161D4
:1027E000002084F8461084F83E1084F83F1084F8E6
:1027F000401084F8411084F8421084F8431084F8A3
:10280000441084F8451084F83D1010BD7047000056
:1028100041B1082910D0042914BF00F1410200F190
:102820003F020BE090F83E20012A1CBF01207047B8
:10283000022280F83E2013E000F140021278012AC3
:102840001CBF012070470222082907D0042914BFA9
:1028500080F8412080F83F2002E000BF80F840204F
:10286000006801F01F010122036A8A4023EA020185
:102870000162036A42F64441C4F201011A43A1F124
:102880004403984202620FD040F2FF71C4F200018B
:10289000884213DCB0F1804F1CD040F20041C4F2FA
:1028A0000001884216D01CE00A6842F400420A6027
:1028B00040F2FF71C4F200018842EBDD42F60041B4
:1028C000C4F20101884205D040F60001C4F20001C3
:1028D000884206D1816801F00701062904BF002063
:1028E0007047016841F0010101600020704700005D
:1028F000FEE70000FEE70000FEE700007047000072
:1029000070470000FEF74CBF70470000FEE7000074
:1029100040F25811C2F20001096800224A6206E042
:102920004A6A824228BF70474A6A824205D24A6A8E
:10293000824202D24A6A8242F2D3704796B0FEF7D0
:102940003DFF00240120CDE91144CDE90F440C9056
:1029500010904FF4E0104FF48031022515900CA830
:102960000594CDE90344CDE90D14CDE91351FFF7EA
:10297000D5F928B1EFF3108072B600BFFEE700BFB3
:102980000F20CDE906054FF48060CDE9090406A8C3
:1029900002210894FFF7BAF820B1EFF3108072B665
:1029A000FEE700BF02244FF4004A02A80294CDF8CB
:1029B00010A0FFF725F828B1EFF3108072B600BF22
:1029C000FEE700BF41F21800C4F20200016840F6C1
:1029D000000841F0100101600168C4F2010801F033
:1029E00010010C910C99016808F5006B41F0200171
:1029F00001600168002201F020010C910C9901682E
:102A00004FF4C04741F0040101600168002501F066
:102A100004010C910C99016841F008010160006803
:102A20004FF4C04100F008000C900C985846FEF797
:102A3000BDFD404648F282010022FEF7B7FD08F5D1
:102A4000806630464FF470410022FEF7AFFD0C97D0
:102A50000CAF4FF0010958463946CDE90D950F945A
:102A6000FEF788FC58463946CDE90CA50E94FEF7D2
:102A700081FC40463946CDE90C950E94FEF77AFC70
:102A800048F28200CDE90C0940463946CDE90E54A2
:102A9000FEF770FC3C200C900020C1F22100CDE933
:102AA0000D0940463946FEF765FC30463946CDE90A
:102AB0000C950E94FEF75EFC4FF47040CDE90C09C6
:102AC00030463946CDE90E54FEF754FC082000216B
:102AD0000022FEF7E1FE0820FEF7CAFE09200021D1
:102AE0000022FEF7D9FE0920FEF7C2FE0A200021CF
:102AF0000022FEF7D1FE0A20FEF7BAFE17200021C1
:102B00000022FEF7C9FE1720FEF7B2FE40F2BC001D
:102B1000A8F53441C2F2000048F2A0624FF48043AD
:102B2000C0F2010280E82600C0E90353C0E9055560
:102B3000C0E90755FEF746FD20B1EFF3108072B6ED
:102B4000FEE700BF40F25810A8F58031C2F2000045
:102B50004FF6FE730F95CDE90D55CDE90655472289
:102B600080E82600C0E903358561FFF705FB28B141
:102B7000EFF3108072B600BFFEE700BF4FF4805045
:102B80000C9040F25810C2F200000CA9FFF7CCFBE9
:102B900020B1EFF3108072B6FEE700BF40F258108C
:102BA000C2F2000006A9FFF7A9FA28B1EFF31080DE
:102BB00072B600BFFEE700BF40F210100021C2F263
:102BC000000040F2E7370991CDE90711CDE9021184
:102BD000CDE91111CDE90F11A8F5823240F2CF23D2
:102BE000C0E9021701618021C0E900238161FFF77C
:102BF000C3FA28B1EFF3108072B600BFFEE700BF42
:102C00004FF48050069040F21010C2F2000006A966
:102C1000FFF78AFB20B1EFF3108072B6FEE700BF2A
:102C200040F21010C2F20000FFF77AFD20B1EFF37E
:102C3000108072B6FEE700BF40F21010C2F2000032
:102C400002A94646FFF75AFA20B1EFF3108072B698
:102C5000FEE700BF60200C9040F2F3100D9040F2B0
:102C600010100024C2F200000CA900220E9410944F
:102C7000FFF750FC20B1EFF3108072B6FEE700BF03
:102C800040F21010C2F20000FFF71CFC40F2700A84
:102C9000C2F2000A06F5E051504640F81C1F01251B
:102CA0004FF4602105730475C161C0E901440561F9
:102CB000FEF736F820B1EFF3108072B6FEE700BFE2
:102CC0000920CDE90C0500200E900AF11C000CA98A
:102CD0000190FDF75BFF18B1EFF3108072B6FEE7CD
:102CE00040F21010C2F2000000214FF00009FFF77F
:102CF0008FFD40F25810C2F20000FFF7E1FA019890
:102D0000FEF722FA4FF00208344603E04FF47A70DF
:102D1000FEF780FA0CAE012520463146CDF83890FA
:102D2000CDF830800D95CDF83C80FEF723FB204692
:102D300002210022FEF73AFC44F25060FFF7E8FD62
:102D400020463146CDE90C89CDE90E59FEF712FB3C
:102D50002820FFF7DDFD20460221FEF719FC4FF089
:102D6000000658B95020FFF7D3FD20460221FEF798
:102D70000FFC0126002808BF4FF0FF362046022135
:102D8000FEF706FC0028F9D18AF80060FDF70EFE78
:102D90008AF80700FDF70AFE8AF80800FDF706FE2C
:102DA0008AF80900FDF702FE8AF80A00FDF7FEFD29
:102DB000AAF80E009AF802509AF809009AF80770DB
:102DC000AAF81000AAF8127000F0AAFF0646CAF886
:102DD0001400384600F0A4FFCAF8180015B93046B0
:102DE00000F05CF89AF803005D4608B328464FF4FB
:102DF0000041FEF7CDFB012808D19AF8010028B95F
:102E000020464FF400410022FEF7D0FB28464FF445
:102E10000041FEF7BDFB9AF8011008437FF476AF3E
:102E200020464FF400410122FEF7C0FB6EE700BFD1
:102E3000019E4FF47A713046FEF752F83046FDF7A6
:102E40006BFFAAF80C00BAF80C0040F63501884276
:102E50000CD34FF47A70FEF7DDF9BAF80C0040F6A7
:102E600034018842C2D9002211E000BFBAF80C0038
:102E700040F633018842B9D84FF47A70FEF7CAF9A8
:102E8000BAF80C0040F633018842AFD80122284638
:102E90004FF48041FEF78AFBA8E7000070B50025DB
:102EA000C4F20C252946044600F0F3FE4FF4FA76EE
:102EB00000282046294618BF002600F0EAFE00211F
:102EC00000283546C4F2D811204618BF4FF4967535
:102ED00000F0CAFE002840F21010C2F200000068A4
:102EE00008BF3546456370BD2DE9F04381B0012828
:102EF000C0F2568140F6004640F2581480460D4616
:102F0000C4F201064FF00009C2F20004002703E0FA
:102F10000137474500F0448130464FF4805101228B
:102F2000FEF744FB30464FF400510022FEF73EFB13
:102F300030464FF480410022FEF738FB30464FF414
:102F400000410022FEF732FB2068C0F8249000BF49
:102F5000416AA94208D2416AA94205D2416AA942FE
:102F600002D2416AA942F3D330464FF48051012284
:102F7000FEF71CFB30464FF400510122FEF716FB12
:102F800030464FF480410022FEF710FB30464FF4EC
:102F900000410022FEF70AFB2068C0F8249000BF21
:102FA000416AA94208D2416AA94205D2416AA942AE
:102FB00002D2416AA942F3D330464FF48051002235
:102FC000FEF7F4FA30464FF400510122FEF7EEFA14
:102FD00030464FF480410022FEF7E8FA30464FF4C5
:102FE00000410022FEF7E2FA2068C0F8249000BFFA
:102FF000416AA94208D2416AA94205D2416AA9425E
:1030000002D2416AA942F3D330464FF480510022E4
:10301000FEF7CCFA30464FF400510122FEF7C6FA13
:1030200030464FF480410122FEF7C0FA30464FF49B
:1030300000410022FEF7BAFA2068C0F8249000BFD1
:10304000416AA94208D2416AA94205D2416AA9420D
:1030500002D2416AA942F3D330464FF48051002294
:10306000FEF7A4FA30464FF400510022FEF79EFA14
:1030700030464FF480410122FEF798FA30464FF473
:1030800000410022FEF792FA2068C0F8249000BFA9
:10309000416AA94208D2416AA94205D2416AA942BD
:1030A00002D2416AA942F3D330464FF48051002244
:1030B000FEF77CFA30464FF400510022FEF776FA14
:1030C00030464FF480410122FEF770FA30464FF44B
:1030D00080410122FEF76AFA2068C0F8249000BF00
:1030E000416AA94208D2416AA94205D2416AA9426D
:1030F00002D2416AA942F3D330464FF480510022F4
:10310000FEF754FA30464FF400510022FEF74EFA13
:1031100030464FF480410022FEF748FA30464FF423
:1031200000410122FEF742FA2068C0F8249000BF57
:10313000416AA94208D2416AA94205D2416AA9421C
:1031400002D2416AA942F3D330464FF480510122A2
:10315000FEF72CFA30464FF400510022FEF726FA13
:1031600030464FF480410022FEF720FA30464FF4FB
:1031700000410122FEF71AFA2068C0F8249000BF2F
:10318000416AA942BFF4C4AE416AA942BFF4C0AECD
:10319000416AA942BFF4BCAE416AA942F0D3B7E686
:1031A00001B0BDE8F08300002DE9F04381B00128B3
:1031B000C0F2568140F6004640F2581480460D4653
:1031C000C4F201064FF00009C2F20004002703E038
:1031D0000137474500F0448130464FF480510122C9
:1031E000FEF7E4F930464FF400510022FEF7DEF915
:1031F00030464FF480410022FEF7D8F930464FF4B4
:1032000000410122FEF7D2F92068C0F8249000BFE7
:10321000416AA94208D2416AA94205D2416AA9423B
:1032200002D2416AA942F3D330464FF480510022C2
:10323000FEF7BCF930464FF400510022FEF7B6F914
:1032400030464FF480410022FEF7B0F930464FF48B
:1032500000410122FEF7AAF92068C0F8249000BFBF
:10326000416AA94208D2416AA94205D2416AA942EB
:1032700002D2416AA942F3D330464FF48051002272
:10328000FEF794F930464FF400510022FEF78EF914
:1032900030464FF480410122FEF788F930464FF462
:1032A00000410122FEF782F92068C0F8249000BF97
:1032B000416AA94208D2416AA94205D2416AA9429B
:1032C00002D2416AA942F3D330464FF48051002222
:1032D000FEF76CF930464FF400510022FEF766F914
:1032E00030464FF480410122FEF760F930464FF43A
:1032F00000410022FEF75AF92068C0F8249000BF70
:10330000416AA94208D2416AA94205D2416AA9424A
:1033100002D2416AA942F3D330464FF480510022D1
:10332000FEF744F930464FF400510122FEF73EF912
:1033300030464FF480410122FEF738F930464FF411
:1033400000410022FEF732F92068C0F8249000BF47
:10335000416AA94208D2416AA94205D2416AA942FA
:1033600002D2416AA942F3D330464FF48051002281
:10337000FEF71CF930464FF400510122FEF716F912
:1033800030464FF480410022FEF710F930464FF4EA
:1033900080410022FEF70AF92068C0F8249000BF9F
:1033A000416AA94208D2416AA94205D2416AA942AA
:1033B00002D2416AA942F3D330464FF48051012230
:1033C000FEF7F4F830464FF400510122FEF7EEF814
:1033D00030464FF480410022FEF7E8F830464FF4C3
:1033E00000410022FEF7E2F82068C0F8249000BFF8
:1033F000416AA94208D2416AA94205D2416AA9425A
:1034000002D2416AA942F3D330464FF480510122DF
:10341000FEF7CCF830464FF400510022FEF7C6F814
:1034200030464FF480410022FEF7C0F830464FF49A
:1034300000410022FEF7BAF82068C0F8249000BFCF
:10344000416AA942BFF4C4AE416AA942BFF4C0AE0A
:10345000416AA942BFF4BCAE416AA942F0D3B7E6C3
:1034600001B0BDE8F0835FEA400C08BF91F0000FA7
:103470004FEA8C234FEAC12243EA51514FEA1C50D4
:1034800018BF00F5F0404FEA300018BF41F000418E
:103490005FEA6C5C00F02980BCF1FF3F08BF40F0A0
:1034A00080407047130C06BF12044FF0100C4FF011
:1034B000000C130E04BF12020CF1080C130F04BF12
:1034C00012010CF1040C930F04BF92000CF1020CDA
:1034D000D30F04BF52000CF1010C11464FF0000253
:1034E000A0F11F00A0EB0C00704711F0004F08BFC7
:1034F000704731F000413FF4D5AF0B0C06BF090413
:103500004FF0100C4FF0000C0B0E04BF09020CF131
:10351000080C0B0F04BF09010CF1040C8B0F04BF46
:1035200089000CF1020CCB0F04BF49000CF1010C17
:10353000CCF1200322FA03F341EA030102FA0CF270
:10354000A0EB0C0000F101007047000023F07F4762
:1035500020F07F4C80EA030000F00040ACEB070352
:1035600003F57C5303F1FF032DE9804909B44FEAC9
:10357000144324EA03484FEA154B25EA0B4E0FF299
:10358000042606EB13273E7803FB0667C7F5000702
:1035900007FB06F64FEAD64606F102064FEA543715
:1035A00007FB066CCCF1005C4FEA1C472CEA074C89
:1035B0000CFB06F507FB06F404EB15464FEA9616DE
:1035C00049085FEA320234BF00204FF000404FEA62
:1035D000D13706FB07FC4FEA1C4C0CFB0BF7D21B48
:1035E00003FB0CF761EB07010CFB0EF7B0EB074098
:1035F00072EB17420CFB08F734BFA2EB0742B2EBA9
:10360000074261EB17414FEA0C444FEA910706FB72
:1036100007FC4FEA1C4C0CFB0BF7B0EBC74072EBFE
:10362000573203FB0CF734BFA2EBC742B2EBC742E1
:1036300061EB57310CFB0EF7B0EBC70072EB577222
:103640000CFB08F734BFA2EBC702B2EBC70261EB79
:1036500057714FEA816141EA92114FEA826242EA70
:1036600090124FEA806004EBCC04039F4FEAD137FD
:1036700006FB07FC4FEA1C4C0CFB0BF7D21B03FBB1
:103680000CF761EB07010CFB0EF7B0EB074072EB98
:1036900017420CFB08F734BFA2EB0742B2EB07421C
:1036A00061EB17414FEA8C5504EB9C244FEA9107DC
:1036B00006FB07FC4FEA1C4C0CFB0BF7B0EBC740BA
:1036C00072EB573203FB0CF734BFA2EBC742B2EBED
:1036D000C74261EB57310CFB0EF7B0EBC70072EB42
:1036E00057720CFB08F734BFA2EBC702B2EBC7025C
:1036F00061EB57714FEA816141EA92114FEA8262B0
:1037000042EA90124FEA806015EB4C2544F1000428
:103710004FEAD13706FB07FC4FEA1C4C0CFB0BF7BA
:10372000D21B03FB0CF761EB07010CFB0EF7B0EBB0
:10373000074072EB17420CFB08F734BFA2EB0742BD
:10374000B2EB074261EB17414FEA813141EA924106
:103750004FEA823242EA90424FEA80304FEA0C76DA
:1037600015EB1C1544F1000448EA03434EEA0B48EC
:103770004FF0000EB2EB080C71EB030724BF62465A
:1037800039464EEB0E0E4FF0000B001852414941E6
:103790004BEB0B0BB2EB080C71EB03077BF1000B4F
:1037A00024BF624639464EEB0E0E4FF0000B001858
:1037B000524149414BEB0B0BB2EB080C71EB030789
:1037C0007BF1000B24BF624639464EEB0E0E51EAE8
:1037D000020718BF46F0010616EB0E7655F10002FF
:1037E00054F1000103D5BDE88901BDE80088BDE8BA
:1037F0008901BDE80048B619524141EB0101A3F12E
:103800000103704780807F7E7D7C7B7A7978777634
:1038100076757473727171706F6E6E6D6C6C6B6AAD
:103820006A6968686766666564646363626161604B
:10383000605F5F5E5E5D5D5C5C5B5B5A5A595958C8
:103840005857575656555555545453535252525132
:10385000515050504F4F4F4E4E4D4D4D4C4C4C4B88
:103860004B4B4A4A4A4949494848484747474746CF
:10387000464645454544444444434343434242420B
:10388000424141419C46002B30D477002BD04FEA77
:1038900037071CB503B44FF010004FF01001BAF118
:1038A000000F06D0BCF1000FDCBF40F0080040F074
:1038B00008014FF000000FBCBDE810400BF1010BF8
:1038C000BBF1010F08BF5FEA170722BF12F1010227
:1038D00011F101014FF0004143F1000300F00040FD
:1038E00043EA00007047F9D35708D0E746EA064696
:1038F0004FEA164613F1400F1FDD13F1200FDFBF13
:1039000016430A46002120335B42BED0C3F1200794
:1039100046EA06464FEA164602FA07F746EA07065F
:1039200022FA03F2C3F1200701FA07F742EA07027D
:1039300021FA03F14FF00003A7E746EA020646EA40
:1039400006464FEA164646EA0106BCBF46EA064668
:10395000360C4FF000034FF000024FF0000194E7E7
:103960002DE9804C70B49A46934691E8380007C818
:1039700031EA400C48BF34EA430C03D5FFF7E6FDBB
:10398000FFF780FFF0BCBDE8008C2DE9804C70B4DF
:103990009A46934691E8380007C810F0804F08BF58
:1039A00013F0804F03D100F005F8FFF76BFFF0BC78
:1039B000BDE8008C20F07F4723F07F4C80EA0300B5
:1039C00000F0004007EB0C03A3F57C53A3F1FE03CA
:1039D00092F0000F00F0B38095F0000F00F07780B8
:1039E0002DE901494FEA114021EA00484FEA144607
:1039F00024EA064700FB06FC08FB06F607FB08F86E
:103A000018EB06484CEB164C00FB07F718EB074881
:103A10004CEB17404FEA124B22EA0B4E4FEA154689
:103A200025EA06470BFB06FC0EFB06F607FB0EFE1F
:103A30001EEB064E4CEB164C0BFB07F71EEB074E2E
:103A40004CEB174B18EB0B0840F1000018EB0E0B7A
:103A500058EB000840F100008F1A4FF000014FF0C2
:103A600000063CBFC943661B14BFB5EB040C002124
:103A70003CBFC943F61B4FEA174427EA04454FEA07
:103A80001C472CEA074C04FB076205FB07F70CFBFD
:103A900005F616EB074642EB174204FB0CFC16EB4F
:103AA0000C4642EB1C421BEB060658EB020241415E
:103AB0004EEA8E0E46EA9E0601D5BDE80189B6198A
:103AC000524141EB0101A3F10103BDE801894FEA35
:103AD000144524EA05464FEA114721EA074C05FB45
:103AE00007F406FB07F70CFB06F111EB074144EB6B
:103AF000174405FB0CFC11EB0C4144EB1C444FEA52
:103B0000124722EA074C05FB07F206FB07F70CFBFE
:103B100006F616EB074642EB174205FB0CFC16EBCC
:103B20000C4642EB1C456A1854F1000148BF70472F
:103B3000B619524141EB0101A3F10103704795F021
:103B4000000F37D04FEA114221EA02464FEA1447EC
:103B500024EA074C02FB07F106FB07F70CFB06F40F
:103B600014EB074441EB174102FB0CFC14EB0C4433
:103B700041EB1C414FEA154725EA074C02FB07F5CC
:103B800006FB07F70CFB06F616EB074645EB174559
:103B900002FB0CFC16EB0C4645EB1C42121951F1D2
:103BA000000148BF7047B619524141EB0101A3F132
:103BB000010370474FEA144524EA05464FEA1147CE
:103BC00021EA074C05FB07F106FB07F70CFB06F2A1
:103BD00012EB074241EB174105FB0CFC12EB0C42C8
:103BE00051EB1C414FF0000648BF7047921841EB63
:103BF0000101A3F101037047490050EAC12018BF39
:103C000004204A0D18BF40F0010040F2FF72B2EBF1
:103C1000515F08BF40F00200012808BF052070472F
:103C200010B500290AD00878002807D00548784444
:103C3000FCF716FE002801D0002010BD0248784491
:103C400010BD00005A0300005203000010B500F040
:103C500033F80CBF0120002010BD10B500F02CF887
:103C600014BF0120002010BD10B500F06DF88CBF0E
:103C70000120002010BD10B500F066F82CBF012017
:103C8000002010BD10B500F093F894BF0120002073
:103C900010BD10B500F08CF834BF0120002010BD1D
:103CA000401058BFC0F14040491058BFC1F14041D9
:103CB0008142EFF30080704750EA010C00F113805D
:103CC0001CF5000F58BFBCF5000F01D488427047A7
:103CD00007D710F5000F58BF11F5000F15D4884213
:103CE0007047894270471CF5000F04D5BCF5000FE2
:103CF000F7D5814270474FF0807C1CEB400F38BFF6
:103D00001CEB410F01D28142704710B500F084F8DE
:103D1000922449004FF000504FF08051FFF7C0BF90
:103D2000B0FA80F310FA03F2C3F19D030AD0D9056B
:103D300001EB1220530638BF704700F1010008BFA5
:103D400020F001007047000050EA010C00F11380E0
:103D50001CF5000F58BFBCF5000F01D48842704716
:103D600007D710F5000F58BF11F5000F15D4884282
:103D70007047894270471CF5000F04D5BCF5000F51
:103D8000F7D5814270474FF0807C1CEB400F38BF65
:103D90001CEB410F01D28142704710B500F03CF896
:103DA000922449004FF080504FF00051FFF778BF48
:103DB00050EA010C00F113801CF5000F58BFBCF550
:103DC000000F01D48842704707D710F5000F58BF85
:103DD00011F5000F15D488427047894270471CF5D1
:103DE000000F04D5BCF5000FF7D5814270474FF0A6
:103DF000807C1CEB400F38BF1CEB410F01D281428D
:103E0000704710B500F008F8922449004FF00050B8
:103E10004FF08051FFF744BF0EF1020E2EF0030E5B
:103E20005EF8044B244204D44FEA4102B2F17F4FC2
:103E300011D84FEA4003B3F17F4F0CD80ED14FEAAF
:103E4000D07C0CEB4C0C0CF1020CB2F17F4F08BF94
:103E50004CEBD17C04E04FF0080C01E04FEAD17C40
:103E60000CEB4C0324FA03F404F00704B4F1040C43
:103E700006D20EEB840CBDE810404CF0010C6047FC
:103E8000DFE80CF0070802024FF00040A0F58000C8
:103E900010BD0846420018BFD2F1807288BF00F002
:103EA000004010BDFCF777BA02400000000000A0FF
:103EB0000000000005400000000000C800000000F5
:103EC0000C4000000000409C000000001940000071
:103ED0000020BCBE0000000034400000BFC91B8EA3
:103EE00000000004B5400000504BCFD06607E2CF81
:103EF000010000006C4100003E8251AADFEEA734B1
:103F000001000000D9420000DCB5A0E23A301F9762
:103F1000FFFFFFFFB4450000FD25A0C8E9A3C14F86
:103F2000FFFFFFFFFF3F00000000008000000000D7
:103F3000FF3F0000000000800000000000000000C3
:103F40000000000001020304060708090000000049
:103F500001020304010202030405060708090A0B13
:103F60000C0D0E0F10100000A83F000800000020EC
:103F70001000000028010008B83F000810000020D1
:103F800098070000440100081C00000043000000E6
:103F9000F8FFFFFF0C0000000E0000000F00000003
:103FA0002E000000000000000100000010000000D2
:083FB0000024F40000000000F1
:04000005080000ED02
:00000001FF
